:020000040800F2
:100000005836002069020008E9420008653D0008F2
:10001000E54200087B0400083D7D00080000000068
:10002000000000000000000000000000D54E0008A5
:100030008707000800000000914B0008E94E000807
:10004000830200088302000883020008830200087C
:10005000830200088302000883020008830200086C
:10006000830200088302000883020008830200085C
:100070004D060008830200085D0600086D060008B2
:10008000830200088302000883020008830200083C
:10009000810400088302000883020008830200082C
:1000A00083020008B94F0008830200088302000899
:1000B000C94F000883020008830200088302000879
:1000C00083020008830200088302000883020008FC
:1000D0008302000883020008830200085D530008C1
:1000E00083020008830200088302000883020008DC
:1000F00083020008830200088302000883020008CC
:1001000083020008830200088302000883020008BB
:1001100083020008830200088302000883020008AB
:10012000830200088302000883020008830200089B
:10013000830200088302000883020008830200088B
:100140006905000883020008830200084D46000884
:10015000830200088302000883020008830200086B
:10016000830200088302000883020008830200085B
:1001700083020008830200088302000800000000D8
:10018000830200088302000800F002F800F05CF827
:100190000AA090E8000C82448344AAF10107DA45E2
:1001A00001D100F051F8AFF2090EBAE80F0013F0D8
:1001B000010F18BFFB1A43F0010318479CAB000066
:1001C000BCAB00000A444FF0000C10F8013B13F0E8
:1001D000070408BF10F8014B1D1108BF10F8015BA0
:1001E000641E05D010F8016B641E01F8016BF9D193
:1001F00013F0080F1EBF10F8014BAD1C0C1B09D1EA
:100200006D1E58BF01F801CBFAD505E014F8016B5B
:1002100001F8016B6D1EF9D59142D6D370470000ED
:100220000023002400250026103A28BF78C1FBD8FF
:10023000520728BF30C148BF0B6070471FB50AF096
:100240001AFD1FBD10B510BD00F0E2F81146FFF712
:10025000F5FF08F03BFD00F000F903B4FFF7F2FFF3
:1002600003BC00F003F90000094880470948004733
:10027000FEE7FEE7FEE7FEE7FEE7FEE7FEE7FEE756
:10028000FEE7FEE704480549054A064B70470000B3
:10029000A54F00088901000858300020583600207A
:1002A000583200205832002053EA020C00F06980D6
:1002B0002DE9F04B4FF00006002B1FBFB3FA83F57A
:1002C00003FA05F424FA05F65E4012BF1643B2FAAB
:1002D00082F502FA05F4C5F120051EBF22FA05FCDD
:1002E00044EA0C04203556EA044C4FEA144418BF83
:1002F000641C4FF000084FF00009904271EB030CB2
:1003000039D3002919BFB1FA81F701FA07F6B0FA1B
:1003100080F700FA07F6C7F120071EBF20FA07FC96
:1003200046EA0C062037B6FBF4FCA7EB0507103FA6
:1003300007F01F0BCBF120060CFA0BFB2CFA06F68C
:1003400044BFB3460026202FA4BF5E464FF0000BEB
:100350005BEA060C08BF4FF0010B19EB0B09ABFB76
:10036000027C48EB0608C01B06FB02CC0BFB03CC4F
:1003700071EB0C01C1E70B46024641464846BDE819
:10038000F08B13B54FF000004FF00001AFF3008089
:10039000BDE81C4070474FF0000200B5134694467C
:1003A0009646203922BFA0E80C50A0E80C50B1F1CD
:1003B0002001BFF4F7AF090728BFA0E80C5048BFE1
:1003C0000CC05DF804EB890028BF40F8042B08BF7F
:1003D000704748BF20F8022B11F0804F18BF00F87B
:1003E000012B704770477047704710B500F008F850
:1003F000006810BD10B5044600F002F8046010BD9E
:1004000000487047F42F002000487047F42F002068
:100410007546FFF7F9FFAE4605006946534620F0E2
:100420000700854618B020B5FFF72CFFBDE8204037
:100430004FF000064FF000074FF000084FF0000BA0
:1004400021F00701AC46ACE8C009ACE8C009ACE853
:10045000C009ACE8C0098D46704710B50446AFF33B
:1004600000802046BDE81040FFF7F7BE0149182084
:10047000ABBEFEE726000200704700BFFEE70000AB
:1004800010B5024800F0B3FB10BD00006C03002063
:1004900038B504460D464FF400703049086000201E
:1004A0008860C860082008612088000A2C4908700C
:1004B000207848706088000A8870A078C870A0888A
:1004C000000A087120794871E088000A8871A079D3
:1004D000C8716B460A462149224800F088F940F26B
:1004E000FF101E4908602089000A1D490870207A03
:1004F00048706089000A8870A07AC870A089000AD4
:100500000871207B4871E089000A8871A07BC8715E
:100510006B460A461149134800F069F9E5B140F20B
:10052000FF200E490860208A000A0D490870207CCF
:100530004870608A000A8870A07CC870A08A000A8F
:100540000871207D487100208871C8716B460A4689
:100550000249044800F04BF938BD0000780700203C
:10056000140000206C03002010B5024800F03FFB8F
:1005700010BD0000940300200346042B15D007DCB7
:100580007BB1012B0ED0022B0DD0032B12D10BE02F
:10059000202B0BD0212B0AD0222B09D0232B09D1C1
:1005A00007E008E007E006E005E004E003E002E021
:1005B00001E000E000BF00BF00207047002070474E
:1005C00010B500220449054805F0F3F90449034831
:1005D00005F0E0F9002010BDF020002014140020E8
:1005E000F018002070B504460D462046296809F031
:1005F00007FB2146034805F0CDF9024805F096F9BE
:10060000002070BD1414002010B503460C460021D4
:10061000084610BD2DE9F04104460D4600260A4863
:10062000D0F8BC72D7F8140210B10120BDE8F081F7
:100630002A462146044805F0BCF9034805F06CFA47
:1006400006463046F2E700001414002010B50248B8
:1006500000F07EFE10BD00003C06002010B50248F0
:1006600000F076FE10BD0000BC03002010B502486B
:1006700000F06EFE10BD00001C040020014608784A
:1006800010381823B0FBF3F20848805CC865032AD1
:1006900005D908686FF30900001D886503E0086844
:1006A0006FF309008865886D704700008AAC000808
:1006B000014600208A6A8B69CBB932B1012A0DD07C
:1006C000022A03D0032A10D10EE000BFCB6A03F048
:1006D0008073B3F1807F00D1012007E0CB6AB3F1D2
:1006E000C07F00D1012001E000E000BF34E08B6951
:1006F000B3F5005F1AD132B1012A07D0022A03D024
:10070000032A11D10AE000BF01200EE0CB6A03F0FA
:100710008073B3F1807F00D1012006E0CB6AB3F192
:10072000C07F00D1012000E000BF15E032B1012AF6
:1007300005D0022A04D0032A0CD103E000BF00BF79
:10074000012008E0CB6A03F08073B3F1807F00D111
:10075000012000E000BF00BF704730B50468246886
:1007600024F4802405682C60046863608468402C4D
:1007700004D10468A2600468E16003E00468A16039
:100780000468E26030BD704772B600BFFEE700004B
:1007900070B50A480468001D0568001D06683444E9
:1007A00054B108220649204603F0DEFA0422044927
:1007B0001031284603F0D8FA70BD0000107AFF1FF0
:1007C000AE02002010B5024692F82030012B01D075
:1007D000022B06D11068406908431468606100204C
:1007E00010BD506A40F4802050620120F8E7F0B557
:1007F00004460D461E4694F8207020688368A86859
:1008000000B900E000BF012F01D0022F7DD103F01D
:10081000806030B903F0006018B903F08050002800
:100820007ED0C3F30161012088403060A86860B9C0
:10083000B5F800C0E86840EA4C5C206800F5C0707C
:1008400000EB0110C0F800C00FE0D5E901C040EA9C
:10085000CC00D5F80CC040EA0C00D4F800C00CF570
:10086000C07C0CEB011CCCF80000D5F810C020684F
:1008700000F5C07000EB0110C0F804C0287D01280D
:100880000ED1206800F5C07000EB0110406840F404
:10089000807C206800F5C07000EB0110C0F804C037
:1008A000D079000692F806C040EA0C4092F805C0E4
:1008B00040EA0C2092F804C040EA0C00D4F800C0D2
:1008C0000CF5C07C0CEB011CCCF80C00D0780006B9
:1008D00092F802C040EA0C4092F801C040EA0C20B5
:1008E00092F800C040EA0C00D4F800C00CF5C07CBF
:1008F0000CEB011CCCF80800206800F5C07000EB80
:100900000110006840F0010C01E00FE008E02068F1
:1009100000F5C07000EB0110C0F800C00020F0BD71
:10092000606A40F4001060620120F8E7606A40F4F9
:10093000802060620120F2E7F0B504460A4694F890
:100940002050012D01D0022D7ED1424901F50071C8
:10095000086840F001000860086820F47C500860D6
:100960000868566A40EA06200860107D00F01F06FD
:10097000012000FA06F3C8699843C861A1F5007127
:10098000D069C8B9D1F80C029843C1F80C0290881C
:1009900080B2968940EA064601F51070576940F822
:1009A0003760108880B2168940EA064601F510705B
:1009B000576900EBC7004660D069012819D1D1F80A
:1009C0000C021843C1F80C02908880B2168840EAE5
:1009D000064601F51070576940F83760908980B27B
:1009E000168940EA064601F51070576900EBC7000A
:1009F0004660906928B9D1F804029843C1F804020E
:100A000004E0D1F804021843C1F80402106928B9BF
:100A1000D1F814029843C1F8140204E0D1F814028A
:100A20001843C1F81402106A012804D1D1F81C023D
:100A30001843C1F81C02D1F8000220F00100C1F8EF
:100A400000020020F0BDFFE7606A40F48020606291
:100A50000120F7E700640040704770B5044694F841
:100A60002050012D01D0022D7DD151B92068C068E0
:100A700000F0030080B9606A40F400106062012059
:100A800070BD2068006900F0030028B9606A40F476
:100A9000001060620120F3E7206800F5D87000EBD9
:100AA0000110006800F004009060906840B9206870
:100AB00000F5D87000EB01100068400D106007E0F1
:100AC000206800F5D87000EB01100068C008506085
:100AD000206800F5D87000EB0110006800F00200FB
:100AE000D060206800F5D87000EB0110406800F07D
:100AF0000F00082802D30820106108E0206800F5E4
:100B0000D87000EB0110406800F00F001061206801
:100B100000F5D87000EB0110406800F47F40000A37
:100B20009061206800F5D87000EB01104068000C5F
:100B30005061206800F5D87000EB011080681870D3
:100B4000206800F5D87000EB0110806800F47F4049
:100B5000000A5870206800F5D87000EB011080681A
:100B600000F47F0000E03CE0000C9870206800F585
:100B7000D87000EB01108068000ED870206800F576
:100B8000D87000EB0110C0681871206800F5D870AB
:100B900000EB0110C06800F47F40000A5871206823
:100BA00000F5D87000EB0110C06800F47F00000C65
:100BB0009871206800F5D87000EB0110C068000E35
:100BC000D87131B92068C06840F020002668F06014
:100BD00005E02068006940F02000266830610020B0
:100BE0004EE7606A40F480206062012048E72DE90A
:100BF000F05F04460025206846692068D0F804901C
:100C0000206887682068D0F80CA02068D0F810B061
:100C10002068D0F8188006F00100002855D007F0B1
:100C20000100C0B101202168886007F0020018B1FE
:100C3000204600F086FB0EE007F0040010B145F4FA
:100C4000006508E007F0080010B145F4805502E0A7
:100C5000204600F075FB07F48070C8B14FF4807037
:100C60002168886007F4007018B1204600F06BFB23
:100C70000EE007F4806010B145F4005508E007F479
:100C8000006010B145F4804502E0204600F05AFBB8
:100C900007F48030C8B14FF480302168886007F4D1
:100CA000003018B1204600F050FB0EE007F4802021
:100CB00010B145F4004508E007F4002010B145F4F8
:100CC000803502E0204600F03FFB06F0080038B116
:100CD0000AF0100020B145F4007510202168C860AA
:100CE00006F0040040B10AF0080028B1082021688D
:100CF000C860204600F00CFA06F0020038B1206807
:100D0000C06800F0030010B1204600F003FA06F0BE
:100D1000400038B10BF0100020B145F48065102080
:100D20002168086106F0200040B10BF0080028B1EE
:100D3000082021680861204600F0D0FA06F0100073
:100D400038B12068006900F0030010B1204600F0BF
:100D5000C6FA06F4003040B109F0100028B11020A6
:100D600021684860204600F0BBFA06F4803040B1AC
:100D700009F0080028B1082021684860204600F0EA
:100D8000E5FA06F4004088B309F0040078B306F4ED
:100D9000807020B108F0010008B145F0010506F4AB
:100DA000007020B108F0020008B145F0020506F419
:100DB000806020B108F0040008B145F0040506F495
:100DC0000060A0B108F0700088B108F07000402801
:100DD00017D006DC10280BD020280CD0302819D1D1
:100DE0000CE0502810D0602814D110E01DE019E06C
:100DF00045F008050FE045F010050CE045F0200532
:100E000009E045F0400506E045F0800503E045F4C3
:100E1000807500E000BF00BF2068806920F070008E
:100E2000216888610420216848602DB1606A2843E8
:100E300060622046FFF710FEBDE8F09F70B50446E3
:100E40000CB9012070BD94F8200010B9204600F0C4
:100E5000AFF82068006840F001002168086000F0E9
:100E60006BFD05460DE000F067FD401B0A2808D920
:100E7000606A40F400306062052084F820000120A0
:100E8000E0E72068406800F001000028EBD020680F
:100E9000006820F002002168086000F04DFD054662
:100EA0000DE000F049FD401B0A2808D9606A40F4B3
:100EB00000306062052084F820000120C2E720682D
:100EC000406800F002000028EBD1207E012806D106
:100ED0002068006840F080002168086005E0206814
:100EE000006820F0800021680860607E012806D13B
:100EF0002068006840F040002168086005E0206834
:100F0000006820F0400021680860A07E012806D11A
:100F10002068006840F020002168086005E0206833
:100F2000006820F0200021680860E07E012806D1DA
:100F30002068006820F010002168086005E0206843
:100F4000006840F0100021680860207F012806D169
:100F50002068006840F008002168086005E020680B
:100F6000006820F0080021680860607F012806D131
:100F70002068006840F004002168086005E02068EF
:100F8000006820F0040021680860D4E902010843E9
:100F900021690843616908436168491E0843216863
:100FA000C86100206062012084F82000002049E729
:100FB00010B586B00446142101A8FFF7ECF94E499C
:100FC0002068884241D14D480068401C4B49086068
:100FD0000846006801280FD100BF00200090484853
:100FE000006840F00070464908600846006800F05C
:100FF0000070009000BF00BF00BF0020009040487C
:101000001038006840F008003D4910390860084673
:10101000006800F00800009000BF00BF03200190AE
:1010200002200290002003900320049009200590E4
:1010300001A9344800F080FB00221146142000F082
:1010400009FD142000F0F2FC54E02F49206888428A
:1010500050D100BF002000902948006840F0806017
:10106000274908600846006800F08060009000BFD3
:1010700000BF22480068401C2049086008460068FC
:1010800001280FD100BF002000901D48006840F0EB
:1010900000701B4908600846006800F0007000906E
:1010A00000BF00BF00BF0020009015481038006846
:1010B00040F002001249103908600846006800F04C
:1010C0000200009000BF00BF60200190022002904B
:1010D00000200390032004900920059001A90B48EB
:1010E00000F02AFB00221146402000F0B3FC402013
:1010F00000F09CFC06B010BD006400400000002021
:1011000040380240000C02400068004000040240E9
:101110007047000010B58AB004466A48844265D121
:1011200001AB03AA00212046FFF797FC0398A0F229
:1011300001200B2857D2DFE800F0060708090A0B48
:101140000C0D0E0F100000BF00BF00BF00BF00BF9E
:1011500000BF00BF00BF00BF00BF0398401E5A4938
:1011600008700846007800EB8000584931F81000FC
:1011700000B25549097801EB8101544A02EB410163
:1011800008819DF805009DF8041040EA01204E49B1
:10119000097801EB810122F811009DF807009DF804
:1011A000061040EA012000B24749097801EB8101AD
:1011B00002EB410148809DF809009DF8081040EAC3
:1011C000012000B24049097801EB810102EB4101A5
:1011D00088809DF80A003C49097801EB810102EB07
:1011E0004101887100E000BF00BF68E038488442D8
:1011F00065D101AB03AA00212046FFF72EFC03981E
:10120000A0F201200B2857D2DFE800F006070809FA
:101210000A0B0C0D0E0F100000BF00BF00BF00BF77
:1012200000BF00BF00BF00BF00BF00BF0398401E4B
:10123000284908700846007800EB8000264931F8FC
:10124000100000B22349097801EB8101224A02EB28
:10125000410108819DF805009DF8041040EA012035
:101260001C49097801EB810122F811009DF8070063
:101270009DF8061040EA012000B21649097801EBFA
:10128000810102EB410148809DF809009DF808109A
:1012900040EA012000B20F49097801EB810102EB1D
:1012A000410188809DF80A000A49097801EB810113
:1012B00002EB4101887100E000BF00BF00BF0AB02F
:1012C00010BD00006C0300201C0000209C060020C4
:1012D000940300201D0000200A070020704770477B
:1012E000704770B5044694F82000012822D10220EE
:1012F00084F820002068006820F001002168086060
:1013000000F01AFB05460DE000F016FB401B0A2812
:1013100008D9606A40F400306062052084F820003B
:10132000012070BD2068406800F001000028EBD16A
:101330006062F6E7606A40F4002060620120F0E736
:10134000704770477047704770477047704700009C
:10135000F8B50446002000908C4800684FF4165100
:10136000B0FBF1F7A56D2E6894F85C10082088405A
:10137000304098B12068006800F0040070B1206827
:10138000006820F004002168086094F85C100820D0
:101390008840A860606D40F00100606594F85C10C2
:1013A00001208840304068B12068406900F080002A
:1013B00040B194F85C1001208840A860606D40F056
:1013C0000200606594F85C1004208840304068B1E9
:1013D0002068006800F0020040B194F85C1004201E
:1013E0008840A860606D40F00400606594F85C106F
:1013F00010208840304078B32068006800F0080072
:1014000050B394F85C1010208840A86020680068F1
:1014100000F4802080B12068006800F4002028B922
:10142000206CC8B12046216C884715E0A06C98B1AB
:101430002046A16C88470FE02068006800F48070A7
:1014400028B92068006820F0080021680860206C36
:1014500010B12046216C884794F85C102020884009
:101460003040002865D02068006800F01000002897
:101470005FD094F85C1020208840A86094F8350074
:10148000052828D12068006820F01600216808602F
:101490002068406920F0800021684861206C08B90C
:1014A000A06C28B12068006820F00800216808605E
:1014B00094F85C103F208840A860012084F8350033
:1014C00000BF002084F8340000BF206D10B120461A
:1014D000216D8847F8BD2068006800F4802080B145
:1014E0002068006800F4002028B9606C10B1204624
:1014F000616C88471DE0E06BD8B12046E16B8847FE
:1015000017E02068006800F4807068B920680068FF
:1015100020F0100021680860012084F8350000BF29
:10152000002084F8340000BFE06B10B12046E16B6E
:101530008847606D38B3606D00F00100F0B10520A0
:1015400084F835002068006820F0010021680860F8
:1015500000BF0098401C0090B84200D905E0206808
:10156000006800F001000028F3D100BF012084F8DA
:10157000350000BF002084F8340000BFE06C10B1DB
:101580002046E16C884700BFA4E70000100000205F
:101590002DE9F0410446002500F0CEF9074614B9C4
:1015A0000120BDE8F081606A00B100BF022084F82C
:1015B000350000BF002084F8340000BF20680068B8
:1015C00020F00100216808600AE000F0B5F9C01BB6
:1015D000052805D920206065032084F83500E0E760
:1015E0002068006800F001000028EED1206805683E
:1015F00021480540D4E901010843E1680843216915
:10160000084361690843A1690843E1690843216A05
:1016100008430543606A042803D1D4E90B01084359
:101620000543206805602068456925F00705606A64
:101630000543606A04280DD1A06A0543E06A48B1F9
:101640002046FFF735F828B140206065012084F876
:101650003500A6E7206845612046FFF70FF80646EB
:1016600094F85C103F208840B06000206065012045
:1016700084F83500002094E73F8010F02DE9F04712
:1016800004460D4616461F464FF00008D4F8589001
:1016900000BF94F83400012802D10220BDE8F08791
:1016A000012084F8340000BF94F83500012825D1CA
:1016B000022084F83500002060653B46324629460A
:1016C0002046FFF74AF894F85C103F208840C9F89C
:1016D00008002068006840F0160021680860206C4F
:1016E00028B12068006840F0080021680860206880
:1016F000006840F001002168086006E000BF00209B
:1017000084F8340000BF4FF002084046C6E70000EE
:1017100070B5044600F010F906462546681C10B165
:1017200004480078054400BF00F006F9801BA84279
:10173000FAD370BD0C000020F8B502460B46002518
:10174000002400200021D6E0012606FA01F51E68DB
:1017500006EA0504AC4274D11E7906F00306012E98
:1017600004D01E7906F00306022E13D190684F00B4
:101770000326BE40B0434F00DE68BE403043906059
:10178000506801268E40B0431E79C6F300168E4085
:10179000304350601E7906F00306032E09D0D0684E
:1017A0004F000326BE40B0434F009E68BE4030430A
:1017B000D0601E7906F00306022E13D1CF0802F185
:1017C000200656F827004E07F70E0F26BE40B043FE
:1017D0004F07FF0E1E69BE403043CF0802F12006BE
:1017E00046F8270010684F000326BE40B0431E791C
:1017F00006F003064F00BE40304310605E6806F4FA
:101800004036002E76D000BF002600963C4E36684B
:1018100046F480463A4F3E603E46366806F48046BF
:10182000009600BF00BF374E8F0856F827008E077E
:10183000370F0F26BE40B043334EB24202D10026CE
:1018400024E057E0314EB24201D101261EE0304E75
:10185000B24201D1022619E02E4EB24201D1032636
:1018600014E02D4EB24201D104260FE02B4EB242BD
:1018700001D105260AE02A4EB24201D1062605E032
:10188000284EB24201D1072600E008268F073F0FFD
:10189000BE4030431B4E8F0846F82700224E30686A
:1018A000A0435E6806F4801606B120431E4E3060E9
:1018B000361D3068A0435E6806F4001606B120436A
:1018C000194E361D3060184E361F3068A0435E68D2
:1018D00006F4003606B12043134E361F3060361F23
:1018E0003068A0435E6806F4803606B120430E4E91
:1018F000083E3060491C1029FFF426AFF8BD0000F7
:101900004438024008380140000002400004024010
:1019100000080240000C0240001002400014024087
:1019200000180240001C0240083C01400AB18161DD
:1019300001E00B04836170470148006870470000B4
:10194000040000200348006803490978084401495D
:1019500008607047040000200C00002010B50D48FE
:10196000006840F400700B4908600846006840F4C5
:10197000806008600846006840F4807008600320BA
:1019800000F0A6F80F2000F007F800F02BF8002078
:1019900010BD0000003C024070B504460E480078BF
:1019A0004FF47A71B1FBF0F00C490968B1FBF0F526
:1019B000284601F00BFE08B1012070BD102C07D2A3
:1019C00000222146501E00F045F80548046001E061
:1019D0000120F2E70020F0E70C00002010000020BA
:1019E0000800002008B500BF002000900E480068E5
:1019F00040F480400C4908600846006800F48040CC
:101A0000009000BF00BF00BF00200090081F0068CA
:101A100040F08050091F08600846006800F08050C0
:101A2000009000BF00BF08BD443802400146084690
:101A300000280DDB00BF00BF00F01F0301229A4009
:101A400043099B0003F1E023C3F8002100BF00BF5E
:101A500000BF70472DE9F05F80460D46164600270F
:101A600006F080F9074639462A46334601F007005A
:101A7000C0F1070ABAF1040F02D94FF0040A01E0DD
:101A8000C0F1070AD14600F1040ABAF1070F02D2E9
:101A90004FF0000A01E0A0F1030AD4464FF0010A1A
:101AA0000AFA09FAAAF1010A0AEA020A0AFA0CFA7F
:101AB0004FF0010B0BFA0CFBABF1010B0BEA030B24
:101AC0004AEA0B042146404606F054F9BDE8F09F6F
:101AD00000BF00F00702064B19684FF6FF031940DC
:101AE000044B0B4343EA0221014B196000BF7047CE
:101AF0000CED00E00000FA057047024610684162F4
:101B000000207047F0B5034615461868446A21B9AD
:101B100044EA05401E68B06219E01868806A04EB68
:101B20001044002208E0186800F5827050F8220086
:101B300004EB1044501CC2B2481E9042F3D844EA51
:101B40000547186800F582704E1E40F82670002088
:101B5000F0BD10B50446D4F8E00404F058FC10BD04
:101B600070B504460D4605EBC50304F1140101EB05
:101B70008301CA682946D4F8E00404F03BFB70BD39
:101B800070B504460D4605EBC50304F5157101EB70
:101B90008301CA682946D4F8E00404F0B3FB70BDA1
:101BA00010B50446D4F8E00404F034FC10BD2DE96F
:101BB000F04104460D4605F08000802808D105F06C
:101BC0000F0000EBC00104F1140000EB810607E0F8
:101BD00005F00F0000EBC00104F5157000EB810665
:101BE0003146206805F06CFE07463846BDE8F081B6
:101BF00070B504460E4606F0800080280AD106F033
:101C00000F0000EBC00104F1140000EB810501207E
:101C1000687009E006F00F0000EBC00104F51570D4
:101C200000EB81050020687006F00F00287000BFEF
:101C300094F89404012801D1022070BD012084F899
:101C4000940400BF2946206805F0C8F900BF0020B1
:101C500084F8940400BF00BFEFE770B504460E4659
:101C600006F00F002179884201D9012070BD06F0ED
:101C7000800080280AD106F00F0000EBC00104F1BB
:101C8000140000EB81050120687009E006F00F00E8
:101C900000EBC00104F5157000EB810500206870B1
:101CA0000020A87006F00F00287000BF94F894047C
:101CB000012801D10220D9E7012084F8940400BF53
:101CC0002946206805F088FB00BF002084F89404B2
:101CD00000BF00BFCAE7024601F00F0000EBC003DF
:101CE00002F5157000EB8300406970472DE9F0475D
:101CF00005460E4690461F464FF0000906F080004C
:101D000080280AD106F00F0000EBC00105F1140095
:101D100000EB81040120607009E006F00F0000EB89
:101D2000C00105F5157000EB81040020607006F01D
:101D30000F002070C8F30A00A0602771607808B116
:101D400020786083022F01D10020607100BF95F8D8
:101D50009404012802D10220BDE8F087012085F813
:101D6000940400BF2146286805F044F800BF002015
:101D700085F8940400BF4846EEE72DE9F04105469A
:101D80000E461746984606F00F0000EBC00105F519
:101D9000157000EB8104E760C4F8108000206061DA
:101DA000607006F00F002070A879012800D1E7616B
:101DB000AA792146286805F0A3FB0020BDE8F08140
:101DC00070B504460D4605F00F002179884201D90F
:101DD000012070BD05F0800080280AD105F00F00B9
:101DE00000EBC00104F1140000EB810601207070CB
:101DF00007E005EBC50104F5157000EB8106002036
:101E000070700120B07005F00F00307000BF94F8C2
:101E10009404012801D10220DBE7012084F8940416
:101E200000BF3146206805F01EFB05F00F0028B901
:101E3000A17904F29C42206805F096FA00BF0020C8
:101E400084F8940400BF00BFC3E72DE9F0410546C4
:101E50000E461746984606F00F0000EBC00105F14C
:101E6000140000EB8104E760C4F81080002060617A
:101E70000120607006F00F002070A879012800D1C1
:101E8000E761AA792146286805F03AFB0020BDE801
:101E9000F0812DE9FE4F0446D4F800B05E4620687C
:101EA00005F0F0FD002874D1206805F02AFE08B97D
:101EB000BDE8FE8F40F608008059C0F30D20C4F83D
:101EC000D404206805F01DFE00F00200022805D1B0
:101ED0002068406900F0020021684861206805F030
:101EE00010FE00F01000102845D12068806920F015
:101EF000100021688861DBF8209009F00F0000EBEA
:101F0000C00104F5157000EB810AC9F343400228B3
:101F10001AD147F6F07009EA000030B3C9F30A128B
:101F20005846DAF80C1005F0F1FDC9F30A11DAF899
:101F30000C000844CAF80C00C9F30A11DAF81400BE
:101F40000844CAF8140010E0C9F3434006280CD135
:101F5000082204F29C41584605F0D8FDC9F30A1145
:101F6000DAF814000844CAF814002068806940F0C8
:101F7000100021688861206805F0C3FD00F400208E
:101F8000B0F5002F7BD10025206805F08AFD029076
:101F900072E0E1E2029800F00100002868D0E9B2A6
:101FA000206805F0A1FD804608F0010048B101213C
:101FB00006F5306000EB451081602946204602F0AE
:101FC0007FFB08F00800082809D1082106F53060D9
:101FD00000EB451081602946204602F03FFB08F0E7
:101FE0001000102805D1102106F5306000EB4510D7
:101FF000816008F00200022824D1DBF8140000F010
:102000008000802807D140F60400805940F48061A8
:1020100040F60400815105EBC50104F5157000EB95
:10202000810A9AF80300012806D100208AF80300EB
:10203000E9B2204600F09BFA022106F5306000EB81
:102040004510816008F02000202805D1202106F5E8
:10205000306000EB4510816008F40050B0F5005F7F
:1020600006D14FF4005106F5306000EB4510816059
:102070006D1C029840080290029800288AD12068BE
:1020800005F03FFD00F48020B0F5802F7DD1206861
:1020900005F0FDFC029000259AE0029800F0010096
:1020A000002873D0E9B2206805F005FD804608F0ED
:1020B0000100F0B305F00F0101208840019040F6C7
:1020C00034008159019821EA000040F6340188511A
:1020D000012106F5106000EB45108160A079012810
:1020E00024D105EBC50104F1140000EB810005EBE0
:1020F000C502C16804F1140000EB8200806801444D
:1021000005EBC50204F1140000EB8200C1606DB95B
:1021100005EBC50104F1140000EB8100006928B94A
:1021200004F29C420121206805F01EF9E9B2204624
:1021300000E001E0FFF714FD08F00800082805D1D1
:10214000082106F5106000EB4510816008F01000D2
:10215000102805D1102106F5106000EB45108160B4
:1021600008F04000402805D1402106F5106000EB42
:102170004510816008F0020002281DD1294658460A
:1021800005F043FC05EBC50101E025E01CE004F18E
:10219000140000EB810A9AF80300012806D1002000
:1021A0008AF80300E9B2204600F0D8F9022106F5CA
:1021B000106000EB4510816008F08000802803D19A
:1021C0002946204602F01EFB6D1C02984008029032
:1021D000029800287FF461AF206805F092FC00F0BF
:1021E0000040B0F1004F1CD140F60400805920F0AF
:1021F000010140F60400815194F8CC04012807D174
:10220000002084F8CC0400212046FFF775FC02E092
:10221000204600F0D1FA2068406900F000402168B3
:102220004861206805F06DFC00F40060B0F5006FB7
:102230000ED140F60800805900F0010010B1204690
:1022400000F012FB2068406900F4006021684861DA
:10225000206805F056FC00F48050B0F5805F7ED118
:1022600040F60400805920F0010140F6040081513D
:102270001021206805F0C9FB002732E04FF67F31BE
:1022800006F5106000EB4710816006F5106000EB6A
:102290004710006820F4001106F5106000EB4710AD
:1022A00001604FF67F3106F5306000EB471081602A
:1022B00006F5306000EB4710006820F4001106F5C9
:1022C000306000EB4710016006F5306000EB47100E
:1022D000006840F0006106F5306000EB47100160D7
:1022E0007F1C2079B842C9D840F61C00805940F0C4
:1022F000011140F61C008151E07B70B1D6F88408D2
:1023000040F00B01C6F8841840F64400805940F0B4
:102310000B0140F6440081510FE040F61400805953
:1023200042F22B01084340F614018851081F8059DE
:1023300040F00B014FF401608151D6F8000820F401
:10234000FE60C6F80008A17904F29C42206805F0FE
:102350000BF82068406900F48050216800E000E03C
:102360004861206805F0CDFB00F40050B0F5005F37
:1023700017D1206804F0A6FD206805F070FBE0711D
:1023800000F04EFB0090E2792068009905F040FCD7
:10239000204600F0F9F92068406900F400502168F7
:1023A0004861206805F0ADFB00F00800082808D15E
:1023B000204600F008FA2068406900F00800216813
:1023C0004861206805F09DFB00F08000802818D14E
:1023D000DBF8180020F08000CBF8180001250DE094
:1023E00005EBC50104F5157000EB8100C0780128EC
:1023F00003D1E9B22046FFF7DAFB6D1C2079A84231
:10240000EED8206805F07DFB00F48010B0F5801F49
:102410002DD1012522E006F5106000EB4510D0F823
:10242000009005EBC50104F1140000EB8100007978
:10243000012812D109F00040B0F1004F0DD1012167
:1024400005EBC50204F1140000EB8200C170E8B294
:1024500040F080012046FFF7AAFB6D1C2079A842BE
:10246000D9D82068406900F480102168486120684C
:1024700005F047FB00F40010B0F5001F44D1012522
:1024800038E006F5306000EB4510D0F8009005EB21
:10249000C50104F5157000EB81000079012828D1F1
:1024A00009F00040B0F1004F23D194F8D40400F0BB
:1024B0000100C9F3004188421BD1012105EBC5028F
:1024C00004F5157000EB8200C170DBF8180040F0D5
:1024D0008000CBF81800DBF8140000F0800040B951
:1024E00040F60400805940F4007140F60400815128
:1024F00003E06D1C2079A842C3D800BF2068406962
:1025000000F4001021684861206805F0FAFA00F034
:102510008040B0F1804F08D12046FFF71AFB2068B9
:10252000406900F0804021684861206805F0E9FAC0
:1025300000F0040004280FD12068D0F8049009F0BE
:102540000400042802D12046FFF72AFB20684068D7
:1025500040EA09002168486000BFA9E470B504465C
:102560000D462946D4F8E00403F0C0FF70BD70B5F5
:1025700004460D462946D4F8E00403F0DBFF70BDA5
:10258000F8B504460CB90120F8BD266894F8950406
:1025900028B9002084F89404204600F0A1F8032014
:1025A00084F89504B6F1A04F01D10021A1712068F3
:1025B00004F0D2FE207C8DF8000094E80F0004F0B7
:1025C00095FC20B1022084F895040120DCE700216D
:1025D000206805F0CBFA20B1022084F89504012090
:1025E000D2E7002531E0012105EBC50204F114001A
:1025F00000EB8200417005EBC50104F1140000F806
:10260000215005EBC50100EB81004583002105EB5E
:10261000C50204F1140000EB8200017105EBC50254
:1026200004F1140000EB8200816005EBC50204F1A7
:10263000140000EB8200C16005EBC50204F1140038
:1026400000EB82000161681CC5B22079A842CADC97
:1026500000252AE0002105EBC50204F5157000EB0A
:102660008200417005EBC50104F5157000F821509A
:10267000002105EBC50200EB8200017105EBC502EC
:1026800004F5157000EB8200816005EBC50204F5CE
:10269000157000EB8200C16005EBC50204F51570F2
:1026A00000EB82000161681CC5B22079A842D1DC30
:1026B000207C8DF8000094E80F0004F059FD20B153
:1026C000022084F8950401205EE700206074012058
:1026D00084F89504206804F039FD002054E70000D8
:1026E00010B586B00446142101A8FDF754FE2068F9
:1026F000B0F1A04F42D100BF0020009020480068F8
:1027000040F001001E4908600846006800F0010022
:10271000009000BF00BF4FF4C05001900220029013
:1027200000200390032004900A20059001A9154879
:10273000FFF702F800BF1248001D006840F080005B
:102740000F49091D086000BF002000900C4814309C
:10275000006840F480400A49143108600846006867
:1027600000F48040009000BF00BF00BF002211466F
:102770004320FFF76FF94320FFF758F906B010BD6B
:10278000303802400000024070B504460125E0796F
:1027900008B9002506E0E079022801D1012501E011
:1027A000FDF7F2FF2946D4F8E00403F06DFFD4F8FA
:1027B000E00403F013FF70BD10B50446D4F8E00444
:1027C00003F043FF10BD10B50446D4F8E00403F055
:1027D00047FF10BD70B504460D4600BF94F8940441
:1027E000012801D1022070BD012084F8940400BFAB
:1027F00065742946206805F0EDF900BF002084F8D3
:10280000940400BF00BFEEE710B5044604F29C41FB
:10281000D4F8E00403F04FFF10BD70B504462568FE
:1028200000BF94F89404012801D1022070BD01205A
:1028300084F8940400BFE86800F0400030B1607B89
:10284000012803D1A86B40F48030A863206805F00C
:10285000ADF8206804F068FC00BF002084F8940400
:1028600000BF00BFE2E7000010B50446D4F8E00462
:1028700003F07EFF2068D0F8000E40F001002168D0
:10288000C1F8000EE07A28B10348006840F0060065
:102890000149086010BD000010ED00E070B504466D
:1028A0000D460CB9012070BD5848006800F00700C3
:1028B000A84209D255490D700846006800F007008B
:1028C000A84201D00120EEE7207800F002000228A3
:1028D0001DD1207800F00400042805D14C48006880
:1028E00040F4E0504A490860207800F008000828C9
:1028F00005D14748006840F46040454908604448B5
:10290000006820F0F000A168084341490860207881
:1029100000F00100A8B36068012807D13C480838DE
:102920000068C0F34040B8B90120BCE760680228E5
:1029300002D06068032807D1354808380068C0F322
:10294000406048B90120AEE7314808380068C0F35C
:10295000400008B90120A6E72D48006820F00300D8
:10296000616808432A490860FEF7E6FF064609E069
:10297000FEF7E2FF801B41F28831884202D9032032
:1029800091E707E02248006800F00C006168B0EBB6
:10299000810FEDD11D48006800F00700A84209D959
:1029A0001A490D700846006800F00700A84201D0DF
:1029B000012078E7207800F00400042807D11448AB
:1029C000006820F4E050E16808431149086020786D
:1029D00000F00800082808D10D48006820F4604085
:1029E000216940EAC1000A49086000F03FF808493F
:1029F0000968C1F30311074A515CC84006490860E1
:102A000006480068FEF7C8FF00204CE7003C024083
:102A10000838024092AC0008100000200800002096
:102A200001480068704700001000002000B5FFF763
:102A3000F7FF04490968C1F38221034A515CC84089
:102A400000BD000008380240A2AC000800B5FFF746
:102A5000E7FF04490968C1F34231034A515CC840A9
:102A600000BD000008380240A2AC00082DE9F04784
:102A7000002400250026A1462548006800F00C002F
:102A800020B1042805D008283AD105E0DFF8849069
:102A900039E0DFF8849036E01D48001F006800F040
:102AA0003F041B48001F006800F4800078B11A48FA
:102AB0001749091F0968C1F38811A0FB017001467D
:102AC000224600233846FDF7EFFB05460EE011488D
:102AD0000F49091F0968C1F38811A0FB0170014665
:102AE000224600233846FDF7DFFB05460848001F55
:102AF0000068C0F30140401C4600B5FBF6F902E057
:102B0000DFF8109000BF00BF4846BDE8F087000026
:102B1000083802400024F400001BB700F8B5044652
:102B20000CB90120F8BD207800F00100002874D015
:102B3000F948006800F00C0004280DD0F648006841
:102B400000F00C00082813D1F348001F006800F4BF
:102B50008000B0F5800F0BD1EF4808380068C0F353
:102B60004040002859D06068002856D10120D9E79C
:102B700000BF6068B0F5803F08D1E74808380068BA
:102B800040F48030E449083908601EE06068B0F520
:102B9000A02F0DD1E0480838006840F48020DE49BD
:102BA000083908600846006840F4803008600CE08E
:102BB000D9480838006820F48030D74908390860BF
:102BC0000846006820F48020086000BF606890B16B
:102BD000FEF7B2FE054606E0FEF7AEFE401B642897
:102BE00001D903209EE7CC4808380068C0F3404074
:102BF0000028F1D011E0FEF79FFE054606E0FEF743
:102C00009BFE401B642801D903208BE7C24808388B
:102C10000068C0F340400028F1D1207800F00200A5
:102C200002285FD1BC48006800F00C0058B1BA48D7
:102C3000006800F00C0008281CD1B748001F00688D
:102C400000F48000B0B9B44808380068C0F3400010
:102C500020B1E068012801D0012063E7AE480838C0
:102C6000006820F0F800216940EAC100AA4908394B
:102C7000086037E0E06800B30120A8490860FEF76B
:102C80005BFE054606E0FEF757FE401B022801D911
:102C9000032047E7A04808380068C0F34000002838
:102CA000F1D09D480838006820F0F800216940EA1A
:102CB000C10099490839086014E00020974908606C
:102CC000FEF73AFE054606E0FEF736FE401B0228F8
:102CD00001D9032026E7904808380068C0F3400077
:102CE0000028F1D1207800F0080008282CD1606974
:102CF000A8B101208A490860FEF71EFE054606E0DD
:102D0000FEF71AFE401B022801D903200AE7824879
:102D10006C300068C0F340000028F1D014E00020BF
:102D20007F490860FEF708FE054606E0FEF704FE50
:102D3000401B022801D90320F4E677486C30006874
:102D4000C0F340000028F1D1207800F004000428EE
:102D500070D1002770483830006800F0805090B97A
:102D600000BF002000906C483830006840F0805070
:102D70006949383108600846006800F080500090CA
:102D800000BF00BF01276748006800F48070B0B939
:102D90006448006840F4807062490860FEF7CCFD2A
:102DA000054606E0FEF7C8FD401B022801D90320B6
:102DB000B8E65C48006800F480700028F2D000BFDC
:102DC000A068012808D154486830006840F001002C
:102DD0005149683108601DE0A06805280DD14E48B2
:102DE0006830006840F004004B49683108600846CC
:102DF000006840F0010008600CE047486830006857
:102E000020F001004449683108600846006820F05D
:102E10000400086000BFA068A8B1FEF78DFD05465C
:102E200009E0FEF789FD401B41F28831884202D952
:102E3000032077E626E0384868300068C0F3400099
:102E40000028EED013E0FEF777FD054608E0FEF718
:102E500073FD401B41F28831884201D9032061E6AD
:102E60002D4868300068C0F340000028EFD1012FE2
:102E700007D129483830006820F080502649383181
:102E8000086000BFA069002845D02348006800F012
:102E90000C0008285DD0A069022845D100201F49F8
:102EA0000866FEF749FD054606E0FEF745FD401BB6
:102EB000022801D9032035E6174808380068C0F316
:102EC00040600028F1D1D4E907010843616A40EA73
:102ED00081110122A06AC2EB500041EA00412C207E
:102EE000005D41EA00600C49091F086001200B49A0
:102EF0000866FEF721FD054606E0FEF71DFD401BB6
:102F0000022801D903200DE6034808380068C0F301
:102F100040600028F1D049E00838024000004742F4
:102F2000800E474200700040002021490866FEF7ED
:102F300003FD054606E0FEF7FFFC401B022801D911
:102F40000320EFE51B480068C0F340600028F2D181
:102F50002CE0A069012800D1E4E51648001D0668B0
:102F6000A069012820D006F48001E06981421BD1CC
:102F700006F03F01206A814216D147F6C07030400A
:102F8000616AB0EB811F0FD106F440310122A06AC3
:102F9000C2EB5000B1EB004F06D106F070612C205F
:102FA000005DB1EB006F01D00120BBE50020B9E569
:102FB00000004742003802407047014691F8510036
:102FC000704710B504460CB9012010BD606A38B9CD
:102FD0006068B0F5827F00D105E00021E16102E088
:102FE0000021216161610021A16294F8510028B99A
:102FF000002084F85000204600F048F8022084F8B1
:1030000051002068006820F0400021680860A08816
:1030100000F48270218901F404410843A18901F47C
:1030200000610843217C01F002010843217D01F089
:1030300001010843218B01F400710843217F01F055
:10304000380108432021095D01F080010843218DEA
:1030500001F400510843216808600421A06901EAD5
:10306000104094F8241001F01001084321684860D2
:103070002068C06920F400602168C8610020606594
:10308000012084F8510000209FE7000010B586B0B1
:103090000446142101A8FDF77EF9594920688842A9
:1030A0007ED100BF002000905648006840F4804068
:1030B000544908600846006800F48040009000BF52
:1030C00000BF00BF002000904E481038006840F05C
:1030D00002004C49103908600846006800F0020000
:1030E000009000BF00BF4FF46040019002200290AA
:1030F00000200390032004900520059001A9424878
:10310000FEF71AFB41484249086000204860002150
:103110003F488160C1604FF48061016100214161DD
:103120008161C16101624162FEF732FA08B1FDF7C7
:103130002BFB00BF3648E064846300BF334818307F
:1031400034490860002048604021324881600021F5
:10315000C1604FF480610161002141618161C16101
:1031600001624162FEF714FA08B1FDF70DFB00BFE2
:103170002848A064846300BF2448254908600020D3
:103180004860002122488160C1604FF48061016184
:10319000002141618161C1614FF40031016200E0B1
:1031A0002CE000214162FEF7F3F908B1FDF7ECFADB
:1031B00000BF1748E064846300BF14481830154905
:1031C0000860002048604021124881600021C160F1
:1031D0004FF480610161002141618161C1614FF45F
:1031E0000031016200214162FEF7D2F908B1FDF71A
:1031F000CBFA00BF0748A064846300BF06B010BDCF
:10320000003800404038024000040240586002404C
:10321000BC0300201C040020704770472DE9FE4FBE
:1032200004460F4690461D460C9E01200190FEF775
:1032300083FB814694F851B060680290AA46BBF1C6
:10324000010F0BD00298B0F5827F04D1A06810B9AD
:10325000BBF1040F02D00220BDE8FE8F1FB1B8F110
:10326000000F00D00DB90120F6E700BF94F8500020
:10327000012801D10220EFE7012084F8500000BFAF
:1032800094F85100042802D0052084F85100002051
:103290006065C4F83880E587A5872763E586A5863D
:1032A000206460642068006800F04000402805D079
:1032B0002068006840F0400021680860E068B0F5D0
:1032C000006F52D1606810B1BAF1010F09D1206BC3
:1032D00000882168C860206B801C2063E08E401E3F
:1032E000E0863BE02068806800F00200022810D1F0
:1032F000E08E70B1019801280BD1206B0088216805
:10330000C860206B801C2063E08E401EE086002099
:1033100001902068806800F0010068B1E08F58B12A
:103320002068C068A16B0880A06B801CA063E08F40
:10333000401EE08701200190FEF7FEFAA0EB090095
:10334000B0420BD3701C48B1012084F8510000BF7B
:10335000002084F8500000BF03207DE7E08E0028A5
:10336000C0D1E08F0028BDD152E0606810B1BAF141
:10337000010F09D1206B007821680873206B401C75
:103380002063E08E401EE0863CE02068806800F00C
:103390000200022810D1E08E70B1019801280BD1F3
:1033A000206B007821680873206B401C2063E08E3E
:1033B000401EE086002001902068806800F0010037
:1033C00068B1E08F58B12068C068A16B0870A06B2D
:1033D000401CA063E08F401EE08701200190FEF7B3
:1033E000ABFAA0EB0900B04201D3701C00B94EB992
:1033F000012084F8510000BF002084F8500000BF75
:10340000032029E7E08E0028BFD1E08F0028BCD13F
:103410004A463146204601F09BFC40B120206065C1
:1034200000BF002084F8500000BF012014E7A0680E
:1034300050B900BF002000902068C068009020684C
:103440008068009000BF00BF012084F8510000BFD9
:10345000002084F8500000BF606D08B10120FBE639
:103460000020F9E62DE9F04704460E4617461D46B2
:1034700094F85180D4F80490B8F1010F0AD0B9F54E
:10348000827F04D1A06810B9B8F1040F02D00220E5
:10349000BDE8F0870EB107B10DB90120F8E700BF14
:1034A00094F85000012801D10220F1E7012084F8AE
:1034B000500000BF94F85100042802D0052084F881
:1034C0005100002060652663A586E586A763A58771
:1034D000E5872064606494F85100042806D13548DB
:1034E000E16C08643448E16CC86305E03348E16C82
:1034F00008643348E16CC8633248E16CC86400205A
:10350000E16C0865E38FD4F800C00CF10C01A26BEC
:10351000E06CFEF7B3F850B1606D40F010006065EC
:1035200000BF002084F8500000BF0120B0E72068F1
:10353000406840F00100216848600020A16C0864E8
:10354000A16CC863A16CC864A16C0865E38ED4F853
:1035500000C00CF10C02216BA06CFEF78FF850B18B
:10356000606D40F01000606500BF002084F85000DE
:1035700000BF01208CE72068006800F04000402870
:1035800005D02068006840F040002168086000BF56
:10359000002084F8500000BF2068406840F0200000
:1035A000216848602068406840F002002168486057
:1035B00000206DE7BB4B0008D74B0008C94B000843
:1035C000534C0008934B00087047704770B5044691
:1035D0002546681EB0F1807F01D301200FE0681EF0
:1035E0004FF0E02148610F214FF0FF3004F0C2FBA3
:1035F00000204FF0E021886107200861002070BDA5
:103600007047704730B502460B4600BF92F83C0049
:10361000012801D1022030BD012082F83C0000BF0A
:10362000022082F83D00106844681068816824F028
:1036300070041868044310684460184D1068A8426C
:103640001BD01068B0F1804F17D0154D1068A842FC
:1036500013D0144D1068A8420FD0134D1068A84223
:103660000BD0124D1068A84207D0114D1068A84227
:1036700003D0104D1068A84205D121F08001586890
:10368000014310688160012082F83D0000BF0020E6
:1036900082F83C0000BF00BFBDE700000000014011
:1036A0000004004000080040000C004000040140FD
:1036B000004001400018004010B504460CB901203C
:1036C00010BD94F83D0028B9002084F83C00204645
:1036D00000F026F8022084F83D00211D206801F04A
:1036E0007BFC012084F8460000BF84F83E000121E5
:1036F0003F200155402001554120015500BF00BF2A
:10370000012084F842004320015544200155452002
:10371000015500BF012084F83D000020D0E70000E3
:1037200038B5044628492068884218D100BF0020D7
:1037300000902648006840F00100244908600846CF
:10374000006800F00100009000BF00BF0022114699
:103750001920FEF77FF91920FEF768F932E020689A
:10376000B0F1804F1AD100BF002000901748001F11
:10377000006840F001001549091F0860084600680C
:1037800000F00100009000BF00BF002211461C2085
:10379000FEF760F91C20FEF749F913E00C49206898
:1037A00088420FD100BF002000900848006840F018
:1037B0000200064908600846006800F00200009018
:1037C00000BF00BF38BD0000000001404438024087
:1037D00000040140014691F83D00012801D001207C
:1037E0007047022081F83D000868C06840F0010081
:1037F0000B68D8601A4B086898421BD00868B0F173
:10380000804F17D0174B0868984213D0164B0868A2
:1038100098420FD0154B086898420BD0144B08689B
:10382000984207D0134B0868984203D0124B08689F
:1038300098420CD10868806800F00702062A0CD074
:103840000868006840F001000B68186005E008682F
:10385000006840F001000B6818600020C0E700001D
:10386000000001400004004000080040000C00403F
:103870000004014000400140001800402DE9F041E3
:1038800004460D46002700BF94F83C00012802D1F1
:103890000220BDE8F081012084F83C0000BF022036
:1038A00084F83D002068866826F0770626F47F4677
:1038B000206886602868502833D00CDC202850D03F
:1038C00004DC00284BD0102851D149E0302849D0E1
:1038D00040284CD139E060282DD0702807D0B0F5B1
:1038E000805F03D0B0F5005F41D10DE041E0D5E944
:1038F00002136A68206801F0DFFB2068866846F0E2
:1039000077062068866034E0D5E902136A6820688B
:1039100001F0D2FB2068806840F480402168886014
:1039200027E0EA686968206801F0DAFB5021206826
:1039300001F0CDFB1DE0EA686968206801F0E3FB57
:103940006021206801F0C3FB13E0EA686968206821
:1039500001F0C6FB4021206801F0B9FB09E000BF7F
:1039600000BF00BF2968206801F0B1FB01E001271A
:1039700000BF00BF012084F83D0000BF002084F894
:103980003C0000BF384684E7704770B504462068A5
:10399000C5682068066906F00200022819D105F002
:1039A0000200022815D1401F2168086101202077FC
:1039B0002068806900F0030018B12046FFF7E4FF9B
:1039C00005E0204600F097F8204600F095F800202A
:1039D000207706F00400042819D105F0040004281B
:1039E00015D1C043216808610220207720688069D2
:1039F00000F4407018B12046FFF7C6FF05E02046EE
:103A000000F079F8204600F077F80020207706F0E3
:103A10000800082819D105F00800082815D1C0436E
:103A200021680861042020772068C06900F0030045
:103A300018B12046FFF7A8FF05E0204600F05BF82C
:103A4000204600F059F80020207706F010001028DA
:103A500019D105F01000102815D1C0432168086164
:103A6000082020772068C06900F4407018B1204613
:103A7000FFF78AFF05E0204600F03DF8204600F001
:103A80003BF80020207706F0010048B105F0010066
:103A900030B16FF0010021680861204600F02EF877
:103AA00006F08000802809D105F08000802805D12B
:103AB000C043216808612046FFF7A2FD06F04000E0
:103AC000402809D105F04000402805D1C0432168B5
:103AD0000861204600F05CF806F02000202809D19B
:103AE00005F02000202805D1C04321680861204648
:103AF000FFF787FD70BD70477047000010B50446A2
:103B00001C48844234D100F03DFD06F00DFA06F069
:103B100059FA05F0DFFB05F023FC17480088401C2C
:103B20001549088015480088401C1449088012482F
:103B300000880A2811D112488168124805F0CCFF8C
:103B40000F48C168104805F0C7FF0D4801690F48CC
:103B500005F0C2FF002008490880084800880528B1
:103B600006D104F0E7FC06F0FFF9002003490880C5
:103B700010BD0000D40400202401002026010020F4
:103B8000200C00200C010020100100201401002056
:103B9000704710B504460CB9012010BDA06900B1F2
:103BA00000E000BF94F8410028B9002084F84000EC
:103BB000204600F029F8242084F841002068C068DD
:103BC00020F400502168C860204601F0B1FA206856
:103BD000006920F49040216808612068406920F065
:103BE0002A00216848612068C06840F400502168BC
:103BF000C86000206064202084F8410084F84200FE
:103C00000020606300BFC8E710B586B004461421E9
:103C100001A8FCF7C0FB4C49206888425BD100BF7B
:103C2000002000904948006840F48020474908601F
:103C30000846006800F48020009000BF00BF00BF6D
:103C40000020009041481038006840F004003F49CF
:103C5000103908600846006800F00400009000BFBA
:103C600000BF4FF4406001900220029000200390BA
:103C7000032004900720059001A93548FDF75CFD5D
:103C80003448354908604FF00060486000213248F0
:103C90008160C1604FF480610161002141618161F7
:103CA0004FF48071C1614FF44031016200214162E3
:103CB000FDF76EFC08B1FCF767FD00BF2648E06326
:103CC000846300BF002211462720FDF7C3FE272092
:103CD000FDF7ACFE36E021492068884232D100BFB2
:103CE000002000901948001D006840F0200017498E
:103CF000091D08600846006800F02000009000BF21
:103D000000BF00BF0020009010481038006840F04D
:103D100040000E49103908600846006800F0400075
:103D2000009000BF00BF4FF4844001900220029039
:103D300000200390032004900820059001A9084862
:103D4000FDF7FAFC06B010BD0048004040380240C4
:103D500000080240286002403C0600200014014098
:103D60000018024000BFFEE730B50B46002100BF3F
:103D700016E00A24B4EB107F05D9302404EB10744C
:103D800003F8114005E0412404EB10740A3C03F8E9
:103D90001140000100254C00641C1D554C1CE1B273
:103DA0009142E6DB30BD000010B50E480E490860B8
:103DB0000320486000210C488160C1604FF410214D
:103DC00001614FF400114161002101764176817655
:103DD000C17601774177FDF731F808B1FCF7D4FCE3
:103DE00010BD0000006400406C03002010B50E48B8
:103DF0000E4908600320486000210C488160C160C2
:103E00004FF4102101614FF400114161002101764E
:103E100041768176C17601774177FDF70FF808B1D9
:103E2000FCF7B2FC10BD00000068004094030020C5
:103E300008B500BF002000901248006840F4001050
:103E4000104908600846006800F40010009000BFA8
:103E500000BF002211460C20FDF7FCFD0C20FDF7F1
:103E6000E5FD002211460E20FDF7F4FD0E20FDF7C2
:103E7000DDFD002211460F20FDF7ECFD0F20FDF7C0
:103E8000D5FD08BD3038024000B587B0142102A826
:103E9000FCF781FA00BF002001907748006840F0ED
:103EA0000200754908600846006800F002000190B1
:103EB00000BF00BF00BF002001900846006840F02E
:103EC000400008600846006800F04000019000BF14
:103ED00000BF00BF002001900846006840F00100CC
:103EE00008600846006800F00100019000BF00BFB4
:103EF00000BF002001900846006840F008000860FC
:103F00000846006800F00800019000BF00BF00BF35
:103F1000002001900846006840F004000860084650
:103F2000006800F00400019000BF00BF00BF002047
:103F300001900846006840F48070086008460068F8
:103F400000F48070019000BF00BF00BF002001900E
:103F50000846006840F0200008600846006800F04D
:103F60002000019000BF00BF00BF00200190084664
:103F7000006840F0800008600846006800F080009B
:103F8000019000BF00BF00BF0020019008460068FC
:103F900040F0100008600846006800F01000019032
:103FA00000BF00BF002280213448FDF7BFFC002283
:103FB00080213348FDF7BAFC012240213048FDF74B
:103FC000B5FC012203212F48FDF7B0FC012240215E
:103FD0002D48FDF7ABFC01224FF4D4412B48FDF7EF
:103FE000A5FC012211032548FDF7A0FC80200290CA
:103FF0000120039000200490059002A91F48FDF7BE
:104000009BFBC020029001200390002004900590AB
:1040100002A91B48FDF790FB0320029001200390AA
:1040200000200490059002A91648FDF785FB40206A
:1040300002900120039000200490059002A91248EC
:10404000FDF77AFB4FF4D44002900120039000204A
:104050000490059002A90D48FDF76EFB4FF48050C7
:1040600002900120039004900020059002A90348CB
:10407000FDF762FB07B000BD30380240000402408B
:1040800000200240001402400008024000100240DC
:1040900010B50E480E4908604FF482704860002148
:1040A0000B488160C160016141614FF40071816121
:1040B0000821C16100210162416281620A21C1625D
:1040C000FEF77FFF08B1FCF75FFB10BD0038004032
:1040D0007C04002000B587B0002003900490059078
:1040E000069001900290164816490860A720486083
:1040F00000211448816040F2E731C1600021016174
:1041000041618161FFF7D8FA08B1FCF73DFB4FF43C
:104110008050039003A90B48FFF7B0FB08B1FCF7F0
:1041200033FB00200190029001A90648FFF76AFACC
:1041300008B1FCF729FB0348FFF74CFB07B000BDB3
:1041400000000140D404002000B587B00020039097
:10415000049005900690019002904FF08040144921
:104160000860A720486000211148816040F2E731D3
:10417000C160002101618161FFF79EFA08B1FCF77F
:1041800003FB4FF48050039003A90948FFF776FB27
:1041900008B1FCF7F9FA00200190029001A9044847
:1041A000FFF730FA08B1FCF7EFFA07B000BD0000E6
:1041B0001C05002000B587B00020039004900590F6
:1041C000069001900290154815490860A7204860A4
:1041D00000211348816040F2E731C1600021016194
:1041E00041618161FFF768FA08B1FCF7CDFA4FF43D
:1041F0008050039003A90A48FFF740FB08B1FCF781
:10420000C3FA00200190029001A90548FFF7FAF9CE
:1042100008B1FCF7B9FA07B000BD00000004014086
:104220006405002010B50B480B4908600B48486036
:10423000002109488160C1604FF4806101610C2157
:10424000416100218161C161FFF7A3FC08B1FCF766
:104250009BFA10BD00480040AC050020A08601007C
:1042600010B50B480B4908604FF4E130486000215D
:1042700008488160C16001610C21416100218161B8
:10428000C161FFF786FC08B1FCF77EFA10BD0000A3
:1042900000140140F405002010B500220D490E481D
:1042A00001F065FF08B1FCF76FFA0C490A4802F00B
:1042B000A0FA08B1FCF768FA0949074801F05EFB6B
:1042C00008B1FCF761FA044802F096FB08B1FCF76C
:1042D0005BFA10BD7802002014140020EC020020CC
:1042E000C802002000BFFEE700BFFEE71FB516A111
:1042F00003C9CDE90201002000900190012003F0E4
:104300001FFD052202A9302000F050F90522694660
:10431000102000F0BDF89DF80000112812D19DF882
:10432000010022280ED19DF8020033280AD19DF801
:104330000300442806D19DF80400552802D100202E
:1043400004B010BD0120FBE71122334455000000EA
:1043500070B50646072000F0B7F8044604F04000A8
:10436000C0B1172000F0B0F8054605F0010028B1F3
:104370004021272000F058F9012070BD0C22314661
:10438000612000F085F804F07001272000F04CF95E
:104390000020F2E704F0300020B104F030012720C3
:1043A00000F042F90120E8E710B500F00DF800BF79
:1043B000FFF79CFF0028FBD100F032F801200149F3
:1043C000087010BD6902002000B587B0142102A852
:1043D000FBF7E1FF00BF002001900F48006840F0AC
:1043E00002000D4908600846006800F002000190D4
:1043F00000BF00BF881402900120039000200490A9
:104400000220059002A90548FDF796F9012003F066
:1044100097FC07B000BD00003038024000040240A5
:1044200010B5FF21E22000F0FFF8FF21E12000F0AD
:10443000FBF87021272000F0F7F80C21312000F064
:10444000F3F8052210492A2000F0CCF805220F4984
:10445000302000F0C7F80121212000F0E5F801210B
:10446000222000F0E1F80321242000F0DDF80021F3
:10447000252000F0D9F80F21262000F0D5F80F21D3
:10448000202000F0D1F810BDAAAC0008AFAC0008A5
:104490002DE9F04107460D461646002003F050FC7A
:1044A000384600F099FC8046002405E0FF2000F02B
:1044B00093FC2855601CC4B2B442F7DB012003F022
:1044C0003FFC4046BDE8F08170B50446002003F093
:1044D00037FC204600F080FCFF2000F07DFC054604
:1044E000012003F02DFC284670BD10B5044620467F
:1044F000FFF72EFF30B92078092801D0012010BD28
:104500000020FCE70120FAE770B505460720FFF719
:10451000DBFF04462146272000F086F8FF21E1203A
:1045200000F082F80E21202000F07EF80C222946AF
:10453000A02000F03BF840F6C41600BF0720FFF7AC
:10454000C3FF044604F0100040B1FF21E12000F059
:104550006BF81021272000F067F805E0761E04F0C4
:10456000200008B9002EE9D100BF04F0200018B1E6
:104570002021272000F058F80F21202000F054F8C7
:1045800070BD000010B50648007800B910BD0548A0
:10459000FFF7ABFF10B90448FFF7B6FF00BFF5E720
:1045A00069020020D81300205D0200202DE9F041AF
:1045B00007460C461546002003F0C2FB384600F0C3
:1045C0000BFC8046002605E014F8010B00F004FC0B
:1045D000701CC6B2AE42F7DB012003F0B1FB4046CF
:1045E000BDE8F0812DE9F04105460E461446002055
:1045F00003F0A6FB284600F0EFFB07462346084AD7
:1046000031460848FEF72EFF00BF0648FEF7D5FCEE
:104610000128FAD103F094FB3846BDE8F081000090
:10462000FC1300207C04002070B505460C460020D9
:1046300003F086FB284600F0CFFB0646204600F03C
:10464000CBFB012003F07CFB304670BD10B5024867
:10465000FDF71FFC10BD0000F02800202DE9F047F9
:1046600004460D4626683746D6F8408007F5306088
:1046700000EB4510D0F80890104880450BD909F49C
:104680000040B0F5004F06D14FF4004107F530600F
:1046900000EB451081602046FEF7B6F807488045DC
:1046A00008D9A079012805D104F29C420121206893
:1046B00002F05AFE0020BDE8F08700000A30544F97
:1046C0002DE9F04705460C46D5F800904E46D9F83E
:1046D00040A006F5306000EB4410D0F80880A879BF
:1046E000012855D108F0080008280FD14348824519
:1046F0000BD908F40040B0F5004F7BD14FF40041D6
:1047000006F5306000EB4410816073E008F0200093
:10471000202806D1202106F5306000EB441081608E
:1047200068E008F02800002864D1344882450CD99C
:1047300008F40040B0F5004F07D14FF4004106F5F2
:10474000306000EB4410816054E004EBC40105F5D7
:10475000157000EB810706F5306000EB4410396AF4
:104760000069C0F31200081A786164B9386930B979
:1047700005F29C420121286802F0F6FD03E0796908
:10478000F8680844F860E1B22846FDF7F9F931E02D
:104790001B4882451BD108F40040B0F5004F07D1FB
:1047A0004FF4004106F5306000EB4410816021E0D9
:1047B00008F02000202805D1202106F5306000EB0C
:1047C00044108160E1B22846FDF7DAF912E06CB9D5
:1047D00004EBC40105F5157000EB8100006928B9F0
:1047E00005F29C420021286802F0BEFDE1B2284695
:1047F000FDF7C6F90020BDE8F08700000A30544FED
:104800000A31544F2DE9F84F07460E46D7F800906D
:10481000C84606EBC60107F1140000EB8104D4E999
:104820000410884202D90120BDE8F88FD4E90401C0
:10483000451AA068A84200D2A568E81C4FEA900A71
:1048400017E0D4E90401451AA068A84200D2A5687F
:10485000E81C4FEA900AB879ABB2F2B20090484631
:10486000E16803F049FAE0682844E06060692844A0
:10487000606108F5106000EB4610806980B2504519
:1048800006D3D4E90410884202D220690028D8D186
:10489000D4E9040188420ED806F00F01012000FA85
:1048A00001FB40F6340050F8080020EA0B0040F607
:1048B000340141F808000020B6E7000000B5B0EE72
:1048C000402AF0EE602A10B99FED800A00BD90EDFD
:1048D000100A80ED110A90ED0F0A80ED100A0178A0
:1048E000022908D1F0EE620AB0EE420A05F0BAF8E9
:1048F00080ED0F0A03E032EEC20A80ED0F0AC0ED30
:10490000062A80ED072A017811B10178022975D1B4
:1049100090ED010AD0ED0F0A20EE200A80ED090A81
:1049200090ED0A0AD0ED020A90ED0F1A00EE810A0E
:1049300080ED0A0A90ED0D0A80ED0E0A90ED0C0A4A
:1049400080ED0D0A90ED0F0AD0ED100A30EE600AEE
:1049500080ED0C0A90ED030AD0ED0C0A20EE200A3F
:1049600080ED0B0A90ED0A0AD0ED050AB4EEE00ADC
:10497000F1EE10FA04DD90ED050A80ED0A0A10E070
:1049800090ED0A0AD0ED050AF1EE600AB4EEE00AF5
:10499000F1EE10FA05D290ED050AB1EE400A80ED75
:1049A0000A0A90ED090AD0ED0A0A30EE200AD0ED8D
:1049B0000B0A30EE200A80ED080A90ED080AD0EDCF
:1049C000040AB4EEE00AF1EE10FA04DD90ED040AF8
:1049D00080ED080A76E090ED080AD0ED040AF1EEC9
:1049E000600AB4EEE00AF1EE10FA6BD290ED040A20
:1049F000B1EE400A80ED080A64E0FFE70178012982
:104A000060D190ED0F0AD0ED100A30EE600AD0EDC3
:104A1000010A20EE200A80ED090A90ED020AD0ED8D
:104A20000F0A20EE200A80ED0A0A90ED0D0A80EDB3
:104A30000E0A90ED0C0A80ED0D0A90ED0F0AD0EDF4
:104A4000100AB0EE001A01EE600AD0ED110A30EE45
:104A5000200A80ED0C0A90ED030AD0ED0C0A20EE3E
:104A6000200A80ED0B0A90ED090AD0ED0A0A30EE1B
:104A7000200AD0ED0B0A30EE200AD0ED080A30EE05
:104A8000200A80ED080A90ED080AD0ED040AB4EE81
:104A9000E00AF1EE10FA04DD90ED040A80ED080A58
:104AA00010E090ED080AD0ED040AF1EE600AB4EED1
:104AB000E00AF1EE10FA05D290ED040AB1EE400AD8
:104AC00080ED080A90ED080A00E7000000000000F1
:104AD00000B102B97047017092ED001A80ED011A21
:104AE00092ED011A80ED021A92ED021A80ED031A7E
:104AF00080ED040AC0ED050A9FED0C1A80ED0E1A38
:104B000080ED0D1A80ED0C1A9FED081A80ED081A41
:104B100080ED0B1A80ED0A1A80ED091A80ED111A4A
:104B200080ED101A80ED0F1A00BFD3E700000000DF
:104B30002DE9F0412DED048B04460D4616461F4627
:104B4000B0EE408AF0EE608AB0EE419A0E486064A2
:104B50000E48A064B0EE491AF0EE680AB0EE480ABA
:104B60003B46324629462046D4F844C0E047B0EEE2
:104B7000491AF0EE680AB0EE480A2046A16C884750
:104B8000BDEC048BBDE8F0815592000869920008E5
:104B9000704770B50546AC6B2068406820F0030094
:104BA00021684860606D40F010006065012084F865
:104BB00051002046FEF700FA70BD70B50446A56BA3
:104BC0002846FEF72AFB70BD70B50446A56B284643
:104BD000FEF7FBFC70BD70B50546AC6BFCF7ACFE98
:104BE00006462868006800F48070B0F5807F2BD0FE
:104BF0002068406820F0200021684860A06850B913
:104C00006068B0F5827F06D12068406820F003001C
:104C10002168486005E02068406820F001002168B4
:104C2000486032466421204600F047F808B1202051
:104C300060650020E087012084F85100606D18B1A4
:104C40002046FEF7B9F970BD2046FEF7E5FA00BF31
:104C5000F9E770B50546AC6BFCF76EFE06462868B2
:104C6000006800F48070B0F5807F21D02068406833
:104C700020F020002168486032466421204600F080
:104C800067F818B1606D40F02000606520684068EA
:104C900020F00300216848600020E086E0870120C2
:104CA00084F85100606D18B12046FEF785F970BD9B
:104CB0002046FEF789FC00BFF9E7F8B504460E462A
:104CC00015466068B0F5827F0DD1A068B0F5004F41
:104CD00003D0A068B0F5806F05D12068006820F08F
:104CE0004000216808606068B0F5827F1FD1A0682D
:104CF000B0F5806F0DD0334600228021204600950C
:104D000000F07CF808B3606D40F02000606503207F
:104D1000F8BD3346002201212046009500F06EF8D0
:104D200098B1606D40F0200060650320F0E73346E5
:104D3000002201212046009500F060F828B1606D46
:104D400040F0200060650320E2E70020E0E700007B
:104D50007CB504460E461546334601220221204604
:104D6000009500F04BF828B1606D40F020006065C0
:104D700003207CBD164800681821B0FBF1F01549EE
:104D8000B0FBF1F04FF47A71484301906068B0F5E0
:104D9000827F0DD13346002280212046009500F00D
:104DA0002DF898B1606D40F0200060650320E0E7C9
:104DB00000BF019800B908E00198401E01902068EA
:104DC0008068C0F3C0100028F3D100BF0020D0E7F6
:104DD0001000002040420F0001B582B00020019079
:104DE0006420012301AA02A900900348FEF716FAE5
:104DF0009DF804000EBD00007C0400202DE9F84F52
:104E000004460D4690461E46DDF82890FCF794FDBA
:104E1000A0EB0900371AFCF78FFD82462C4800688A
:104E2000C0F3CB307843009046E0701C002843D09C
:104E3000FCF782FDA0EB0A00B84200D2A7BB2068B5
:104E4000406820F0E000216848606068B0F5827F2B
:104E50000DD1A068B0F5004F03D0A068B0F5806F09
:104E600005D12068006820F0400021680860A06A31
:104E7000B0F5005F0DD100BF2068006820F400503D
:104E8000216808602068006840F4005021680860CC
:104E900000BF012084F8510000BF002084F85000BA
:104EA00000BF0320BDE8F88FFFE7009808B900278E
:104EB00002E00098401E0090206880682840A842C8
:104EC00001D1012000E000204045AED10020E9E7FB
:104ED00010000020704730B501460A461378521C76
:104EE000147843EA042030BD10B5FCF72BFD10BD4B
:104EF00000B593B0302107A8FBF74DFA142102A8A2
:104F0000FBF749FA00BF002001902448006840F0F8
:104F10008050224908600846006800F080500190E7
:104F200000BF00BF00BF002001901D48006840F492
:104F300080401B4908600846006800F480400190EA
:104F400000BF00BF012007900004089002200D90D0
:104F500041050E9106210F91A82110910221119176
:104F60000721129107A8FDF7D9FD08B1FBF70CFC4A
:104F70000F20029002200390002004904FF4A050D4
:104F800005904FF480500690052102A8FDF786FC9D
:104F900008B1FBF7F9FB13B000BD00004038024038
:104FA000007000400348006840F470000149086048
:104FB0007047000088ED00E010B50248FEF7E5FC00
:104FC00010BD0000D404002010B50248FEF7DDFC3F
:104FD00010BD00001C05002010B502682B4B984244
:104FE0000ED0B0F1804F0BD0294B984208D0294BFE
:104FF000984205D0284B984202D0284B984203D1C2
:1050000022F070024B681A43204B984220D0B0F136
:10501000804F1DD01E4B98421AD01E4B984217D07D
:105020001D4B984214D01D4B984211D01C4B9842F6
:105030000ED01C4B98420BD01B4B984208D01B4BF8
:10504000984205D01A4B984202D01A4B984203D18D
:1050500022F44072CB681A4322F080034C6943EA81
:1050600004028B68C3620B688362084B984202D0CB
:105070000A4B984201D10B690363036843F00403B0
:10508000036001234361026010BD00000000014085
:105090000004004000080040000C004000040140F3
:1050A0000040014000440140004801400018004019
:1050B000001C00400020004030B50C46816821F4FF
:1050C0007F4142EA032525432943816030BD0A46DA
:1050D000816821F0700142F0070319438160704735
:1050E00030B50B461446026A056A25F001050562D3
:1050F000816921F0F00141EA041122F00A021A4309
:105100008161026230BD30B50B461446026A056A01
:1051100025F010050562816921F4704141EA0431EE
:1051200022F0A00242EA03128161026230BD000057
:105130002DE9F84F04462068006920F44050E168EA
:105140000843216808612169A06808436169084330
:10515000E169084300902068C06849F20C61884307
:10516000009908432168C8602068406920F44070B5
:10517000A16908432168486176492068884203D0C4
:1051800075492068884203D1FDF760FC814602E042
:10519000FDF74CFC8146E069B0F5004F6CD1022070
:1051A0006168A0FB015003461920A9FB007001466D
:1051B0002A463846FBF778F86421B0FBF1F04FEA55
:1051C000001A02206168A0FB01510B461920A9FBBF
:1051D00000712A463846FBF767F88346022061686B
:1051E000A0FB015003461920A9FB00712A4638464E
:1051F000FBF75AF86421B0FBF1F000EBC00101EBC2
:105200000010ABEB8000322101EBC0006421B0FB49
:10521000F1F000F0F8000AEB400A02206168A0FB00
:10522000015003461920A9FB007001462A46384662
:10523000FBF73AF8834602206168A0FB0150034661
:105240001920A9FB00712A463846FBF72DF8642186
:10525000B0FBF1F000EBC00101EB0010ABEB800004
:10526000322101EBC0006421B0FBF1F000F0070037
:105270005044216888606AE004206168A0FB015006
:1052800003461920A9FB007001462A463846FBF761
:105290000BF8824604206168A0FB015003461920E8
:1052A000A9FB007001462A463846FAF7FDFF642143
:1052B000B0FBF1F000EBC00101EB0010AAEB8000A5
:1052C000322101EB00106421B0FBF1F000F0F00A94
:1052D00004206168A0FB017003461920A9FB00515E
:1052E0003A462846FAF7E0FF6421B0FBF1F00AEBFA
:1052F000001A04206168A0FB01510B461920A9FB8C
:1053000000712A463846FAF7CFFF834604206168C9
:10531000A0FB015003461920A9FB007001462A4654
:105320003846FAF7C1FF6421B0FBF1F000EBC00191
:1053300001EB0010ABEB8000322101EB0010642187
:10534000B0FBF1F000F00F00504421688860BDE828
:10535000F88F0000001001400014014008B54148DA
:105360000068006800F0200060B100BF00200090DD
:105370003C480068006800903A4800684068009027
:1053800000BF6EE03848006800F01000002868D0C8
:1053900000BF00200090334800680068009031484A
:1053A00000684068009000BF00BF30480068006897
:1053B00000F4002058BB2D480068006820F0010070
:1053C0002A4909680860294800684068C0F124003B
:1053D0002749088024202549096848602348006837
:1053E000006840F400202149096808601F480068EF
:1053F000006840F001001D49096808601C480088E9
:1054000012282ED11B491C4804F0BEFA29E0174887
:105410000068006820F0010014490968086013481A
:1054200000684068C0F124001149088024200F4919
:10543000096848601148806A20F400200F4988629A
:105440000A480068006840F00100084909680860DF
:1054500007480088122804D106490748243004F080
:1054600093FA08BDAC050020004800403C0600202F
:105470001E00002090070020A607002000600240C8
:105480002DE9F04104460D46D4F8C87204F5307099
:10549000D4F8D41250F8210010B90320BDE8F081EF
:1054A00004F53070D4F8D41250F8216005F00F00E4
:1054B00000EB800104F1140050F8210028B305F03E
:1054C0000F0000EB800104F1140050F8211005F0EA
:1054D0000F0000EBC00207F1140000EB82008068AF
:1054E000B1FBF0F200FB121078B9002105F00F00BB
:1054F00000EB800204F1140040F8221000231A4649
:105500002946204601F042F917E00020C6F81402AF
:1055100004F53170D4F8D41250F82100006960B15C
:10552000D6F8080204F53171D4F8D42251F82210CB
:105530002A460B6906F5047198470020AEE770B55E
:1055400004460E4604F53070D4F8D41250F82150B9
:10555000D4F8D41250F8210008B9032070BD3146A8
:10556000204600F06AFFC5F80C02D5F8040204F5E5
:105570003171D4F8D43251F82310CA6805F503719B
:1055800090470020EAE7000070B504460D46304819
:105590000178204600F01BFE00212D48007800F025
:1055A0000F0000EB800204F1140000EB8200C173D5
:1055B00028480178204600F00AFE0021254800789E
:1055C00000F00F0000EB800204F5AA7000EB8200EF
:1055D000C17321480178204600F0F9FD00211E48E2
:1055E000007800F00F0000EB800204F1140000EBE3
:1055F0008200C1731848007800F00F0000EB8002B1
:1056000004F1140000EB8200816004F53070D4F8DE
:10561000D41250F82100C8B104F53171D4F8D42265
:1056200051F822104868804704F53071D4F8D4222C
:1056300051F8220001F0D6FB002104F53070D4F8B7
:10564000D42240F822100020C4F8BC02002070BD13
:1056500067030020680300206903002070B504463A
:1056600004F53070D4F8D41250F821500DB903204D
:1056700070BD04F53170D4F8D41250F8210098B1FF
:1056800095F80002FF280FD095F8012295F8000246
:1056900004F53171D4F8D46251F826108B6829468C
:1056A0009847FF2085F800020020E1E701460A2024
:1056B0000880014870470000E00200202DE9F04119
:1056C000044682210D4800F09EFC054601210B484E
:1056D00000F099FC06468121084800F094FC07463A
:1056E0000DB11020A8710EB14020B0800FB1402044
:1056F000B880432020800148BDE8F08124030020C9
:105700002DE9F041044682210E4800F07CFC05465C
:1057100001210C4800F077FC06468121094800F081
:1057200072FC07460DB11020A87116B14FF400703D
:10573000B08017B14FF40070B8804320208001483A
:10574000BDE8F081240300202DE9F04104468221C8
:105750000D4800F058FC054601210B4800F053FCB1
:1057600006468121084800F04EFC07460DB1102086
:10577000A8710EB14020B0800FB14020B880432006
:1057800020800148BDE8F0812403002070B5044664
:105790000E464FF4077001F027FB054645B900217E
:1057A00004F53070D4F8D42240F82210022070BDE5
:1057B0004FF407712846FAF7EEFD04F53070D4F87F
:1057C000D41240F82150D4F8D41250F82100C4F873
:1057D000BC02207C98BB4FF4007302225048017831
:1057E000204600F0CBFE01214D48007800F00F006C
:1057F00000EB800204F1140000EB8200C1734B0245
:10580000022248480178204600F0B8FE01214548B0
:10581000007800F00F0000EB800204F5AA7000EBA6
:105820008200C17310214048007800F00F0000EBA7
:10583000800204F1140000EB8200816032E0FFE797
:105840004023022236480178204600F097FE0121CD
:105850003348007800F00F0000EB800204F11400E0
:1058600000EB8200C173402302222E4801782046BB
:1058700000F084FE01212B48007800F00F0000EBBF
:10588000800204F5AA7000EB8200C1731021264843
:10589000007800F00F0000EB800204F1140000EB30
:1058A00082008160082303221F480178204600F00F
:1058B00065FE01211C48007800F00F0000EB80021B
:1058C00004F1140000EB8200C1730020C5F804024B
:1058D00004F53171D4F8D42251F8221008688047B9
:1058E0000020C5F81402C5F81802D5F8040208B95A
:1058F00002205CE7207C48B94FF400730948017826
:105900002046D5F8042200F051FE07E04023054868
:1059100001782046D5F8042200F048FE002046E732
:1059200067030020680300206903002070B5044667
:1059300004F53070D4F8D41250F82150D4F8D412B1
:1059400050F8210008B9032070BD207C48B94FF4FD
:105950000073094801782046D5F8042200F026FE9D
:1059600007E04023044801782046D5F8042200F0DF
:105970001DFE0020E8E7000068030020024609B988
:105980000320704702F53170D2F8D43240F823106A
:105990000020F6E710B5024602F53070D2F8D44286
:1059A00050F824300BB9032010BDC3F804120020B6
:1059B000FAE730B503460C4603F53070D3F8D452FD
:1059C00050F8251009B9032030BDC1F80842C1F8CC
:1059D00010220020F8E72DE9FC4105460C4605F5AC
:1059E0003070D5F8D41250F821600020019000905A
:1059F000804616B90320BDE8FC81207800F06000E5
:105A000000283DD020287CD1E08868B3207800F0C1
:105A10008000B8B1E288607805F53171D5F8D4C25C
:105A200051F82C108B6831469847E088072801D937
:105A3000072000E0E08807463A463146284600F055
:105A400012F91CE0607886F80002E088402801D254
:105A5000E08800E0402086F8010296F801223146F5
:105A6000284600F0DCF80AE0607805F53171D5F8D9
:105A7000D42251F8221000228B682146984747E033
:105A8000607830B1012832D00A2813D00B282FD1EA
:105A900021E095F89C02032805D102226946284698
:105AA00000F0E1F805E02146284600F0ACF84FF0A0
:105AB000030824E095F89C02032805D1012201A9DE
:105AC000284600F0D0F805E02146284600F09BF873
:105AD0004FF0030813E095F89C02032805D02146F7
